:10000000000006200103000099030000C340000027
:100010009D0300009F030000A1030000A303000054
:10002000000000000000000000000000A503000028
:10003000A703000000000000A9030000AB030000BC
:100040004D3B0000553B00005D3B0000653B000060
:100050006D3B0000753B00007D3B0000853B0000D0
:100060008D3B0000953B00009D3B0000A53B000040
:10007000AD3B0000B53B0000BD3B0000C53B0000B0
:10008000CD3B0000D53B0000DD3B0000E53B000020
:10009000ED3B0000F53B0000FD3B0000053C00008F
:1000A0000D3C0000153C00001D3C0000253C0000FC
:1000B0002D3C0000353C00003D3C0000453C00006C
:1000C0004D3C0000553C00005D3C0000653C0000DC
:1000D0006D3C0000753C00007D3C0000853C00004C
:1000E0008D3C0000953C00009D3C0000A53C0000BC
:1000F000AD3C0000B53C0000BD3C0000C53C00002C
:10010000CD3C0000D53C0000DD3C0000E53C00009B
:10011000ED3C0000F53C0000FD3C0000053D00000A
:100120000D3D0000153D00001D3D0000253D000077
:100130002D3D0000353D00003D3D0000453D0000E7
:100140004D3D0000553D00005D3D0000653D000057
:100150006D3D0000753D00007D3D0000853D0000C7
:100160008D3D0000953D00009D3D0000A53D000037
:10017000AD3D0000B53D0000BD3D0000C53D0000A7
:10018000CD3D0000D53D0000DD3D0000E53D000017
:10019000ED3D0000F53D0000FD3D0000053E000086
:1001A0000D3E0000153E00001D3E0000253E0000F3
:1001B0002D3E0000353E00003D3E0000453E000063
:1001C0004D3E0000553E00005D3E0000653E0000D3
:1001D0006D3E0000753E00007D3E0000853E000043
:1001E0008D3E0000953E00009D3E0000A53E0000B3
:1001F000AD3E0000B53E0000BD3E0000C53E000023
:10020000CD3E0000D53E0000DD3E0000E53E000092
:10021000ED3E0000F53E0000FD3E0000053F000001
:100220000D3F0000153F00001D3F0000253F00006E
:100230002D3F0000353F00003D3F0000453F0000DE
:100240004D3F0000553F00005D3F0000653F00004E
:100250006D3F0000753F00007D3F0000853F0000BE
:100260008D3F0000953F00009D3F0000A53F00002E
:10027000AD3F0000B53F0000BD3F0000C53F00009E
:10028000CD3F0000D53F0000DD3F0000E53F00000E
:10029000ED3F0000F53F0000FD3F0000054000007D
:1002A0000D400000154000001D40000025400000EA
:1002B00090550000000000200C0000009055000048
:1002C000000000040000000090550000000006201F
:1002D000000000009055000000A00B40000000004E
:1002E0000C000020180200000000000400000000C4
:1002F000000006200000000000A00B4000000000ED
:1003000072B6134B134A17480360196881F30888C3
:1003100082F30A8802F07AFF0F4B07E003F10C0426
:100320009A685968186800F01FF823460B4A9342F0
:10033000F4D306E01C46596854F8080B00F023F883
:100340002346074A9342F5D362B604F083FAFEE7E8
:100350000000000000F00520B0020000E0020000F4
:100360000003000008ED00E0002393420AD210B41D
:1003700050F8044B41F8044B04339342F8D35DF832
:10038000044B70477047002303E0002240F8042B21
:1003900004338B42F9D37047FEE7FEE7FEE7FEE742
:1003A000FEE7FEE7FEE7FEE7FEE7FEE7FEE7FFFF0C
:1003B0002DE9B04F8EB004AF42F210737B62022081
:1003C00000F094FD38623B6A00229A4693465246FA
:1003D0005B464FF000004FF00001990041EA927136
:1003E000900002460B4612EB0A0443EB0B054FF05C
:1003F00000024FF00003AB0143EA9463A20114EB47
:10040000020845EB030918EB08033B6049EB0903BD
:100410007B60D7E900894046494628A3D3E90023F9
:1004200004F052FB02460B461346FB8301233B7349
:100430000023BB7332237B73FB8B3B820023BB7493
:100440000123FB7400233B750023BB7532237B75AE
:10045000FB8B3B830023BB760123FB7607F10C0269
:100460003B6A02937B6A01930023009302230021DD
:10047000114802F051FA07F10C023B6A02937B6AC1
:10048000019300230093012301210B4802F044FA59
:1004900007F10C023B6A02937B6A019300230093ED
:1004A00001230221044802F037FA00BF2837BD4675
:1004B000BDE8B08FAFF3008000000D4000CA9A3B4A
:1004C0000000000080B58AB000AFB9607B600346D1
:1004D000FB731346BB73BB7B012B01D001232AE0C6
:1004E000174ABB7B13747B687B61BB68BB610023CD
:1004F0003B7700237B770123BB770123FB77002326
:1005000087F82030002387F82130FB7B87F82230E2
:10051000002387F82330002387F8243007F11403E1
:100520001946074802F076FF054B064A9A60044BCD
:10053000054ADA60002318462837BD4680BD00BF53
:100540000C000020053500009934000080B584B00F
:1005500000AF786039600023FB60094B1B7C002BE7
:1005600002D14FF0FF3306E03A687968054800F0A1
:1005700023F8F860FB6818461037BD4680BD00BF01
:100580000C0000208905000080B582B000AF7860C3
:10059000084B1B7C002B02D14FF0FF3306E0054BCC
:1005A0009B68391D012203489847012318460837E4
:1005B000BD4680BD0C00002080B59CB002AFF86045
:1005C000B9607A6000233B660023FB650023FB6172
:1005D000002387F84A3000237B61BB687B667B6E13
:1005E0001B78002B00F0D2817B6E1B7887F8493096
:1005F00097F84930252B0BD097F84920FB68104617
:100600009847FB690133FB617B6E01337B66BCE17C
:10061000012387F84B3000237B65002387F85B308C
:1006200020E07B6E01337B667B6E1B7887F8493058
:1006300097F849302F2B0FD997F84930392B0BD821
:100640007A6D13469B0013445B001A4697F84930B5
:100650001344303B7B6505E07B6E013B7B660123E9
:1006600087F85B3097F85B3083F00103DBB2002B37
:10067000D7D17B6E01337B667B6E1B782E2B2ED100
:1006800000233B65002387F85B3020E07B6E01335D
:100690007B667B6E1B7887F8493097F849302F2BA3
:1006A0000FD997F84930392B0BD83A6D13469B0078
:1006B00013445B001A4697F849301344303B3B65BE
:1006C00005E07B6E013B7B66012387F85B3097F882
:1006D0005B3083F00103DBB2002BD7D102E07B6EED
:1006E000013B7B667B6E01337B667B6E1B7887F8F4
:1006F000493097F84930642B24D097F84930692B5A
:1007000020D097F84930662B1CD097F84930462BFB
:1007100018D097F84930782B14D097F84930582BD7
:1007200010D097F849306F2B0CD097F84930622BD6
:1007300008D097F84930702B04D097F84930752BC2
:1007400040F0DC8097F84930642B03D097F84930AB
:10075000692B15D17B681A1D7A601B68BB6107F194
:10076000180107F1200097F84B3000930A2301226B
:1007700003F07EF9F86507F12002FB6D13443B6638
:1007800097F84930582B03D097F84930782B1CD173
:1007900097F84930782B02D1002387F84B307B68DB
:1007A0001A1D7A601B687B6107F1140107F12000B4
:1007B00097F84B3000931023002203F059F9F865A5
:1007C00007F12002FB6D13443B6697F849306F2B0D
:1007D0000BD097F84930622B07D097F84930702B2F
:1007E00003D097F84930752B6AD197F84930702BB0
:1007F0000DD17B681A1D7A601B683B6107F11001FF
:1008000007F114030422184600F0DCF804E07B68CA
:100810001A1D7A601B687B6197F84930623B132B85
:100820003AD801A252F823F081080000990800008C
:100830009908000099080000990800009908000034
:100840009908000099080000990800009908000024
:100850009908000099080000990800007908000034
:100860008908000099080000990800009908000014
:100870009908000091080000082387F84A300CE02E
:10088000022387F84A3008E0102387F84A3004E052
:100890000A2387F84A3000E000BF97F84A2007F1A2
:1008A000140107F1200097F84B3000931346002203
:1008B00003F0DEF8F86507F12002FB6D13443B6698
:1008C0007A6D07F11C01FB6800930B46F96D20203F
:1008D00003F0AEF83B6E002B54D00AE03B6E5A1E7C
:1008E0003A661B781A46FB6810469847FB69013345
:1008F000FB613B6E1B78002BF0D143E097F8493049
:10090000632B0BD17B681A1D7A601B687B64FB68C4
:10091000786C9847FB690133FB6133E097F8493005
:10092000732B27D17B681A1D7A601B68FB64FB6CF4
:10093000002B27D0F86C03F0CDFF0346FB657A6DE2
:1009400007F11C01FB6800930B46F96D202003F0B2
:100950006FF80AE0FB6C5A1CFA641B781A46FB68B5
:1009600010469847FB690133FB61FB6C1B78002B39
:10097000F0D107E097F84920FB6810469847FB69DB
:100980000133FB617B6E01337B6628E600BFFB69A8
:1009900018466837BD4680BD80B584B000AF78602A
:1009A0000023FB604FF0FF33BB607968044803F01D
:1009B00029F8BA68F968786803F0BBF800BEFDE76B
:1009C000D84C0000F1B5002A4BD011F0030306D03B
:1009D00011F8014B013A00F8014B42D0F5E710F055
:1009E00003031BD1102A04DB103AF0C9102AF0C00F
:1009F000FAD2130744BF30C930C0530744BF51F87F
:100A0000044B40F8044B930744BF31F8024B20F8E5
:100A1000024BD30744BF0C78047022E0C3070AD40A
:100A2000042A16D351F8044B043A20F8024B250C43
:100A300020F8025BF4E7042A0BD351F8044B043A84
:100A400000F8014B250A20F8025B260E00F8016B26
:100A5000F1E7002A1EBF11F8014B00F8014B013AE3
:100A6000F7D1F1BD80B584B000AF7860084611467B
:100A70001A460346FB700B46BB7013467B70FA7830
:100A80007878796813465B0013441B0103441433E0
:100A90005B000B449B88FB81BB78022B24D0022B8C
:100AA00033DC002B10D0012B2FD1FB8923F00F0357
:100AB000FB81B7F9183003F00F031AB2B7F90E3003
:100AC00013431BB2FB8123E0FB8923F0F003FB817E
:100AD000B7F918301B011BB2DBB21AB2B7F90E30EE
:100AE00013431BB2FB8113E0FB8923F47063FB818A
:100AF000B7F918301B021BB203F470631AB2B7F9CE
:100B00000E3013431BB2FB8102E00A48FFF744FF9B
:100B1000FA787878796813465B0013441B01034424
:100B200014335B000B44FA899A8000BF1037BD462E
:100B300080BD00BFEC4C000080B588B002AF04233C
:100B40007B6103F024FE5B4802F05CFF07F10803C1
:100B5000184601F0B1FE02237B7301233B7301238E
:100B60003B7207F108031A460021534801F054FD77
:100B70000346012B04D1514802F044FF012394E0C5
:100B80000223BB720023FB7202237B7207F108036E
:100B90001A460121484801F03FFD0346012B04D1CC
:100BA000464802F02FFF01237FE007F108031A46B1
:100BB0000221414801F030FD0346012B04D13F489A
:100BC00002F020FF012370E03B1D184602F020FADE
:100BD00001237B713B1D1A460021374802F01CF9A6
:100BE0003B1D1A460121344802F016F93B1D1A46F6
:100BF0000221314802F010F93B1D1A4603212E480C
:100C000002F00AF90F2300930023012200212A4851
:100C1000FFF728FF0F23009300230122012126481C
:100C2000FFF720FF0F230093002301220221224817
:100C3000FFF718FFFFF7BCFB012207211E4803F056
:100C400011FA07211C4803F0F1F91D4942F2107016
:100C500000F0B6FD7B6904337B617B69642B01D9AD
:100C600004237B617B69DBB2009300230122002116
:100C7000114802F03BF87B695B08DBB2009300236C
:100C8000012201210C4802F031F87B699B08DBB29C
:100C90000093002301220221074802F027F80122D5
:100CA0000721054803F0DEF9CFE718461837BD469F
:100CB00080BD00BF484D000000000D40604D0000A9
:100CC00080D1F00880B400AF074BD3F8003503F0B3
:100CD0008073002B14BF01230023DBB21846BD46EE
:100CE0005DF8047B704700BF0040044080B400AF53
:100CF000074BD3F8003603F08073002B14BF012399
:100D00000023DBB21846BD465DF8047B704700BF88
:100D10000040044080B483B000AF78607B68214A13
:100D2000934205D07B68204A934201D0012332E0F0
:100D30007B681C4A934201D0012300E000231B4A38
:100D4000C2F80833194BD3F80033184A23F40003D0
:100D5000C2F80033154BD3F80033144A43F01003A4
:100D6000C2F80033114BD3F80033104A43F020038C
:100D7000C2F800330D4BD3F800330C4A43F00103A3
:100D8000C2F8003300BF094BD3F8003303F080737F
:100D9000002BF8D0002318460C37BD465DF8047BC5
:100DA000704700BF006CDC0200449508004004401E
:100DB00080B485B000AF78600A4BD3F80035FB6093
:100DC000FB6823F44033FB60FA687B681343FB60E5
:100DD000044AFB68C2F8003500BF1437BD465DF811
:100DE000047B70470040044080B489B000AF786055
:100DF0007B68FB61264B7B617B68B3F1004F40D081
:100E00000023BB6138E0FB69002B39D0FB697B8292
:100E10007B8A002B2AD07B8AC3F30B033B827B8A1D
:100E20001B0B9BB2DBB2013BFB733B8A40F2FE32F1
:100E3000934215D1174B5B6923F07062FB7B1B0655
:100E400003F07063134913434B6100BF114B1A69E0
:100E5000FB7B1B06534003F07063002BF6D105E0CB
:100E60003B8A9B007A691344FA7B1A60FB691B0C6E
:100E7000FB61BB690133BB61BB69012BC3D900E0D6
:100E800000BF00BF2437BD465DF8047B704700BF3C
:100E9000600200400040044080B485B000AF0346CB
:100EA0003960FB80104BFB60FB889B00FA681344A1
:100EB0004FF0C0421A603B68002B07D1FB889B00B3
:100EC000FA6813444FF080421A6006E0FB889B00EA
:100ED000FA6813443A68013A1A6000BF1437BD46F5
:100EE0005DF8047B704700BF0003004080B584B00C
:100EF00000AF0346FB710023FB60FB79172B00F268
:100F0000998001A252F823F0690F0000710F0000D0
:100F1000790F0000810F00008B0F0000950F00007B
:100F2000A50F00009D0F0000AD0F0000B50F0000E1
:100F3000BD0F0000C50F0000CF0F0000D90F00004B
:100F4000E30F0000ED0F0000F50F0000FF0F0000A1
:100F500009100000131000001D10000025100000F3
:100F60003B1000002D10000000F01EFAF86065E054
:100F700003F047F9F86061E003F043F9F8605DE0E1
:100F8000002003F054F9F86058E0012003F04FF915
:100F9000F86053E000F050FAF8604FE000F04AF9D2
:100FA000F8604BE000F030F9F86047E000F04CF9F1
:100FB000F86043E000F06EF9F8603FE000F080F97F
:100FC000F8603BE0012000F091F9F86036E0022083
:100FD00000F08CF9F86031E0042000F087F9F86047
:100FE0002CE0082000F082F9F86027E000F0A0F97A
:100FF000F86023E0012000F0B1F9F8601EE0022063
:1010000000F0ACF9F86019E0042000F0A7F9F860EE
:1010100014E0082000F0A2F9F8600FE003F06CF88B
:10102000F8600BE003F0ACF8F86007E000F058FA65
:10103000F86003E00023FB6000E000BFFB68184697
:101040001037BD4680BD00BF80B582B000AF002321
:101050007B60134BD3F804355B0E03F00303022BC4
:1010600010D0022B14D8002B02D0012B05D00FE09A
:1010700000F05EF903467B600DE000F00BF90346DB
:101080007B6008E0012000F069F903467B6002E024
:1010900000237B6000BF7B6818460837BD4680BDD3
:1010A0000040044080B582B000AF00237B60124B4B
:1010B000D3F804365B0E03F00303022B0ED0022B91
:1010C00011D8002B02D0012B04D00CE000F030F935
:1010D00078600BE000F0DEF8786007E0012000F0B7
:1010E0003DF9786002E000237B6000BF7B68184612
:1010F0000837BD4680BD00BF0040044090B587B0B2
:1011000000AF78603D4BD3F800383C4A43F0010310
:10111000C2F80038394BD3F80035384A23F00303BE
:10112000C2F80035354A7B681B68C2F80435334A7B
:101130007B685B68C2F80C357B685B682F4A43F0BC
:101140000043C2F80C352D4A7B689B68C2F8143501
:101150007B689B68294A43F00043C2F81435274A4C
:101160007B68DB68C2F810357B68DB68234A43F094
:101170000043C2F81035214A7B681B69C2F8243548
:101180001E4A7B685B69C2F828351C4B1C4A9A6072
:10119000FFF75AFF786100F0C7F938617A693B6957
:1011A000B2FBF3F3FB60FB68164AA2FB0323DB09E7
:1011B00003F59673114AC3F31003C2F818350F4BA9
:1011C000D3F800350D4A43F00303C2F8003500BFE1
:1011D000FFF778FD034683F00103DBB2002BF7D164
:1011E0007B689C6902F088FF03469C4201D0032380
:1011F00000E0002318461C37BD4690BD0040044067
:1012000001005A5AD34D621080B400AF074BD3F897
:10121000003203F02003002B01D0054B00E0002337
:101220001846BD465DF8047B704700BF004004408F
:10123000001BB70080B400AF024B1846BD465DF8F6
:10124000047B704740420F0080B483B000AF0E4B68
:10125000D3F8003303F00103002B02D100237B609D
:101260000BE0094BD3F8083303F00103002B02D045
:10127000064B7B6001E0064B7B607B6818460C37B1
:10128000BD465DF8047B704700400440004495086B
:10129000006CDC0280B400AF074BD3F8003303F0DE
:1012A0001003002B01D0054B00E000231846BD467B
:1012B0005DF8047B704700BF00400440006CDC0216
:1012C00080B400AF074BD3F8003303F02003002BAA
:1012D00001D0054B00E000231846BD465DF8047BB5
:1012E000704700BF004004400044950880B483B0BC
:1012F00000AF78600D4BD3F8003203F00103002BF0
:101300000DD00A4BD3F820227B68134003F00F0363
:10131000002B02D04FF47A5302E0002300E00023B8
:1013200018460C37BD465DF8047B704700900540B9
:1013300080B400AF074BD3F8003103F08073002B6B
:1013400002D0054B1B6800E000231846BD465DF83F
:10135000047B7047004004400000002080B483B04C
:1013600000AF78600D4BD3F8003403F08073002B8E
:101370000DD00B4BD3F820217B68134003F00F03F3
:10138000002B02D0074B1B6802E0002300E0002383
:1013900018460C37BD465DF8047B7047004004409A
:1013A000009005400400002080B582B000AF00230B
:1013B0007B60204B1B691B0E03F00F03013B062BC8
:1013C0002FD801A252F823F0E5130000EF1300001C
:1013D000F9130000031400000F140000191400009A
:1013E00029140000FFF7A4FF03467B601DE0FFF710
:1013F0000BFF03467B6018E0FFF726FF03467B6088
:1014000013E00420FFF7AAFF03467B600DE002F023
:1014100073FE03467B6008E002F0B2FE03467B6089
:1014200003E000237B6000E000BF7B6818460837BC
:10143000BD4680BD0040044080B582B000AF0023AF
:101440007B604FF08043D3F88832072B37D801A256
:1014500052F823F0751400007D140000851400007C
:101460008D140000951400009D140000B7140000B6
:10147000C5140000FFF798FF786024E002F03CFEFE
:10148000786020E0FFF754FF78601CE0FFF7DCFE97
:10149000786018E0FFF7B8FE786014E002F070FEA4
:1014A00002464FF08043D3F8E433DBB20133B2FBA2
:1014B000F3F37B6007E000F013F8786003E00023AB
:1014C0007B6000E000BF4FF08043D3F88433DBB291
:1014D00001337A68B2FBF3F318460837BD4680BD86
:1014E00080B582B000AF00237B600E4B1B8A9BB29D
:1014F0005B0A03F00103002B02D0012B05D009E0A9
:101500000120FFF7F3FE786007E00120FFF726FFD8
:10151000786002E000237B6000BF7B6818460837D4
:10152000BD4680BD00C0044080B483B000AF01233D
:101530007B600C4BD3F8043503F40023002B09D156
:10154000084BD3F80C35DBB27B607B68002B01D1F4
:1015500001237B607B6818460C37BD465DF8047B31
:10156000704700BF0040044080B483B000AF012347
:101570007B600C4BD3F8043603F40023002B09D115
:10158000084BD3F80C36DBB27B607B68002B01D1B3
:1015900001237B607B6818460C37BD465DF8047BF1
:1015A000704700BF0040044080B483B000AF012307
:1015B0007B60144BD3F8043503F48013002B19D14E
:1015C000104BD3F8043503F48033002B06D00D4BB9
:1015D000D3F8143503F01F037B6006E0094BD3F802
:1015E000143503F01F035B007B607B68002B01D187
:1015F00002237B607B6818460C37BD465DF8047B90
:10160000704700BF0040044080B483B000AF0123A6
:101610007B60144BD3F8043603F48013002B19D1EC
:10162000104BD3F8043603F48033002B06D00D4B57
:10163000D3F8143603F01F037B6006E0094BD3F8A0
:10164000143603F01F035B007B607B68002B01D125
:1016500002237B607B6818460C37BD465DF8047B2F
:10166000704700BF0040044080B584B000AF4FF029
:101670007E53FB60254BD3F8283503F40063002B21
:101680000AD1224BD3F810359BB207EE903AF8EE10
:10169000677AC7ED037A27E01C4BD3F82835DB01C6
:1016A00003F08003BB60194BD3F824355B0EBA6896
:1016B0001343BB60154BD3F8243523F07E4307EE6C
:1016C000903AB8EE677ADFED126AC7EE267AC7ED78
:1016D000017ABB6807EE903AF8EE677A97ED017AE7
:1016E00077EE277AC7ED037AF86803F0A8FA024686
:1016F0000B46134302D14FF07E53FB60FB6807EEAD
:10170000903AB0EE670A1037BD4680BD00400440F5
:101710000000004C80B584B000AF4FF07E53FB60FA
:10172000254BD3F8283603F40063002B0AD1224B53
:10173000D3F810369BB207EE903AF8EE677AC7ED11
:10174000037A27E01C4BD3F82836DB0103F0800333
:10175000BB60194BD3F824365B0EBA681343BB60E9
:10176000154BD3F8243623F07E4307EE903AB8EEBB
:10177000677ADFED126AC7EE267AC7ED017ABB6899
:1017800007EE903AF8EE677A97ED017A77EE277ACE
:10179000C7ED037AF86803F052FA02460B4613438A
:1017A00002D14FF07E53FB60FB6807EE903AB0EE3B
:1017B000670A1037BD4680BD004004400000004C61
:1017C0002DE9B04384B000AF7860396079680029B2
:1017D00032D07968002088468146396800200A4660
:1017E000034602FB09F008FB03F10144A8FB024594
:1017F0004B191D46134A4FF000032046294603F0BB
:1018000063F902460B46C7E90223D7E90223012BFD
:1018100002D30D48FFF7C0F8D7E902014FF00002EC
:101820004FF00003820842EA81728B08C7E9022365
:10183000BB68184602F035FD00BF1037BD46BDE855
:10184000B08300BF40420F007C4D000080B485B0E3
:1018500000AF7860064A7B6852F82330FB60FB6873
:10186000D3F8F43F18461437BD465DF8047B704743
:101870009854000080B586B000AFF8600B467A60DF
:10188000FB72FB7A072B02D91D48FFF785F81D4A2A
:10189000FB6852F823307B61FB7A1946786902F0C5
:1018A00056FD034683F00103DBB2002B01D0032376
:1018B00021E07B69D3F8F83F03F00803002B09D03F
:1018C0007B69D3F8F83F03F00702FB7A9A4201D014
:1018D000012310E07B68002B08D0FB7A43F008035B
:1018E000DBB21A467B69C3F8F82F03E0FA7A7B690A
:1018F000C3F8F82F002318461837BD4680BD00BF37
:10190000A84D00009854000080B582B000AF786008
:101910000B46FB707B68092B02D90E48FFF73CF899
:101920000D4A7B6832F81330184602F0CAFC0B4AA5
:101930007B6852F82330184601F08CFBFB780022BC
:1019400019467868FFF796FF034618460837BD46E4
:1019500080BD00BFEC4D0000C0540000D454000016
:1019600080B584B000AF78607868FFF76FFFF860EB
:10197000FB6803F03003002B13D0254A7B681E332D
:1019800052F82330002B0CD0214A7B681E3352F8CA
:10199000233020497A681E3251F822201146786897
:1019A0009847FB6803F00303002B13D0184A7B68A9
:1019B0000A3352F82330002B0CD0154A7B680A33C7
:1019C00052F8233013497A680A3251F8222011461E
:1019D00078689847FB6803F00403002B13D00C4A87
:1019E0007B68143352F82330002B0CD0084A7B68F4
:1019F000143352F8233007497A68143251F8222000
:101A000011467868984700BF1037BD4680BD00BFBB
:101A100020000020C000002080B584B000AF7860B6
:101A20000023FB6009E00D4AFB6852F823307A6816
:101A30009A4206D0FB680133FB60FB68092BF2D9A0
:101A400000E000BFFB68092B02D90548FEF7A4FFA0
:101A5000FB6818461037BD4680BD00BFFC5400002F
:101A6000384E000080B58CB000AFF860B9607A6085
:101A7000BB68002B02D17448FEF78EFFBB681B6861
:101A8000002B02D17148FEF787FFBB681B7A072B3A
:101A900002D96F48FEF780FFBB685B7A072B02D93B
:101AA0006C48FEF779FF0023FB62BB681B68FB6193
:101AB000002387F823300023FB84042387F8223097
:101AC00042E07B685A00BB681B6897F8221001FB54
:101AD00003F3B2FBF3F301335B08BB84BB8C002B35
:101AE00002D10123BB8406E0BB8CB3F5005F02D3B7
:101AF00041F6FF73BB8497F82230BA8C02FB03F3E4
:101B00007A68B2FBF3F3BB61BB681B68BA699A429F
:101B100004D9BB681B68BA69D31A03E0BB681A68AA
:101B2000BB69D31A7B617A69FB699A4207D87B69E2
:101B3000FB6197F8223087F82330BB8CFB8497F841
:101B40002230013387F8223097F82230202BB8D981
:101B5000BB681B68404AA2FB03235A0913465B007B
:101B60001344FA699A4203D940F22153FB624CE1D3
:101B7000F868FFF751FF034601211846FFF7C4FE3E
:101B8000F862FB6A002B01D0FB6A3FE1F86802F0C3
:101B90004DFCFB681B69BB6297F82330032B07D908
:101BA00097F82330072B03D8BB6A43F40033BB629A
:101BB000BB6A23F0F853BB6297F82330013B1B0646
:101BC00003F0F853BA6A1343BB62BB6A23F4FF53B2
:101BD00023F01F03BB62FB8CC3F30C02BB6A1A43E6
:101BE000FB681A61FB681B6923F00052FB681A61ED
:101BF000FB689B6923F4E26323F00703BB62BB68C5
:101C00001B791A46BB68DB7B1B0203F4E0631A43B3
:101C1000BB689B7B9B0003F004031343BA6A134326
:101C2000BB62BB685B79012B18D1BB681B79002BA9
:101C300004D0BB6A23F40063BB6217E0BB6A43F4C1
:101C40000063BB6212E000BF704E0000944E0000C3
:101C5000C44E0000204F00001F85EB51BB681B796C
:101C6000002B03D0BB6A43F01003BB62FB68BA6A67
:101C70009A61FB681B6923F40053BB62BB68DB7984
:101C80005B0303F40052BB6A1A43FB681A61BB682A
:101C90005B7A1B04BA68127A1A43FB68DA62FB6843
:101CA0009B6A43F08802FB689A62FB689B6A43F474
:101CB0004042FB689A62574BBB62BB6A43F00043E9
:101CC000BB62BB6A43F44043BB62FB685A6ABB68B1
:101CD0005B7B1B0103F01001BB681B7B5B0103F006
:101CE00020030B431A43FB685A62BB689B7A002BA4
:101CF00005D0FB685B6A43F00802FB685A62BB6868
:101D0000DB7A002B05D0FB685B6A43F00102FB68BD
:101D10005A62BB689B79002B04D0BB6A43F0005326
:101D2000BB6203E0BB6A23F00053BB62FB685A69E5
:101D3000BB6A1A43FB685A61FB689B69BB62BB685C
:101D400093F82630002B03D0BB6A43F40023BB6218
:101D5000BB6893F82730002B03D0BB6A43F4802381
:101D6000BB62FB68BA6A9A61BB681B8A1A46FB6849
:101D70009A64BB685B8A1A46FB68DA64FB689A6DF2
:101D8000BB681B7D1946BB681B7E5B001943BB68A3
:101D90001B7F9B001943BB6893F82030DB000B438B
:101DA0001A43FB689A65BB685B7D9B07BA68D28A59
:101DB0001A43FB681A66BB685B7E9B07BA68528B46
:101DC0001A43FB685A66BB685B7F9B07BA68D28B75
:101DD0001A43FB689A66BB6893F821309B07BA6880
:101DE000528C1A43FB68DA66BB6893F825301A02F6
:101DF000FB681A65BB6893F82430002B05D0FB689C
:101E00001B6D43F00F02FB681A65FB6A18463037FA
:101E1000BD4680BD00001F4080B582B000AF786035
:101E20007B68002B02D11E48FEF7B6FD2822002158
:101E3000786802F016FD7B684FF4E1321A607B6827
:101E400000221A717B6800225A717B6800229A7105
:101E50007B680022DA717B6800221A727B6800229C
:101E60005A727B6800229A727B680022DA727B6861
:101E700000225A737B6800221A737B6800229A73CF
:101E80007B680022DA737B68002283F826207B6857
:101E9000002283F8272000BF0837BD4680BD00BF61
:101EA0007C4F000080B485B000AF78607B685A69D1
:101EB000134B1340FB607B685B6C9B0003F03C039F
:101EC000FA681343FB607B68DB6D9B0003F470537F
:101ED000FA681343FB607B689B6A1B0C03F0C30327
:101EE000FA681343FB60FB6823F0785323F47C53B8
:101EF000FB60FB6818461437BD465DF8047B7047ED
:101F000000C0FFC180B584B000AF786039603A6826
:101F1000204B13403B603B689B0803F00F027B683B
:101F20005A643B689B0803F470627B68DA653B681F
:101F300003F00303002B10D07B689B6ABB60BB6877
:101F400023F47033BB603B681B0403F44033BA686E
:101F50001343BB607B68BA689A627B685B6903F075
:101F600078533A681343BB607B68BA685A617868F3
:101F7000FFF798FF02463B681340002B03D040F266
:101F80001A53FB6001E00023FB60FB681846103722
:101F9000BD4680BD3FC01FC080B586B000AFF860B1
:101FA000B9607A60BB68002B02D11448FEF7F4FCDC
:101FB000BB687B617B683B6111E000BFFB685B69CC
:101FC00003F40003002BF9D07B691B781A46FB68E9
:101FD000DA617B6901337B613B69013B3B613B69B2
:101FE000002BEAD100BFFB685B6903F48003002B80
:101FF000F9D0002318461837BD4680BDA04F000019
:1020000080B58AB000AFF860B9607A60BB68002B19
:1020100002D15248FEF7C0FC00237B62BB683B62E2
:10202000FB689B69FB61FB6903F40063002B09D12A
:10203000FB6903F01003002B06D1FB6903F00203D8
:10204000002B01D0012300E00023FB76FB7E03F090
:102050000103FB7676E0F868FFF724FF78617B697F
:1020600003F40023002B0ED04FF40021F868FFF793
:1020700049FF0346002B02D140F21D5301E040F21C
:102080001A537B6244E07B6903F48033002B0DD04C
:102090004FF48031F868FFF735FF0346002B02D17B
:1020A0004FF4A46301E040F21A537B627B6903F4AE
:1020B0000033002B0DD04FF40031F868FFF722FFFA
:1020C0000346002B02D140F21F5301E040F21A53A5
:1020D0007B627B6903F48023002B0DD04FF48021B9
:1020E000F868FFF70FFF0346002B02D140F21E53A2
:1020F00001E040F21A537B627B6A002B07D1FB6838
:10210000DB6A1B0E03F00F03002BA4D000E000BF1E
:102110007B6A002B1CD1FB7E002B0BD0FB68DB699C
:10212000DBB203F07F03DAB23B6A1A703B6A013319
:102130003B6207E0FB68DB69DAB23B6A1A703B6A14
:1021400001333B627B685A1E7A60002BD7D100E0D6
:1021500000BF7B6A18462837BD4680BDC44F0000CB
:1021600080B483B000AF0346FB71FA7913461B04B9
:102170009B1A3233054AA2FB03235B099BB2184624
:102180000C37BD465DF8047B704700BF1F85EB51DF
:1021900080B584B000AF78600023FB6009E00D4A91
:1021A000FB6852F823307A689A4206D0FB68013304
:1021B000FB60FB68012BF2D900E000BFFB68012B3C
:1021C00002D90548FEF7E8FBFB6818461037BD4604
:1021D00080BD00BF24550000E84F000090B585B0D9
:1021E00000AF7860084611461A460346FB700B465E
:1021F000BB7013463B800023FB81BB78032B00F2AE
:10220000AB8001A252F823F0192200006F220000D7
:10221000B92200000F2300003B885B08FB81FC789B
:10222000FB89184602F05EF9034619467A68234690
:102230005B0023445B01134402330A461A80FA7898
:10224000796813465B0013445B010B440A33002298
:102250001A80FA78FB89013B98B2796813465B00D3
:1022600013445B010B440E3302461A8077E0FA7880
:10227000796813465B0013445B010B440233002270
:102280001A80FA783B885B0898B2796813465B003D
:1022900013445B010B440A3302461A80FA783B88E8
:1022A000013B98B2796813465B0013445B010B4411
:1022B0000E3302461A8052E03B885B08FB81FC78B3
:1022C000FB89184602F00EF9034619467A68234640
:1022D0005B0023445B01134402330A461A80FA78F8
:1022E000796813465B0013445B010B440A330022F8
:1022F0001A80FA78FB89013B98B2796813465B0033
:1023000013445B010B440E3302461A8027E0FA782F
:10231000796813465B0013445B010B4402330022CF
:102320001A80FA783B885B0898B2796813465B009C
:1023300013445B010B440A3302461A80FA783B8847
:10234000013B98B2796813465B0013445B010B4470
:102350000E3302461A8002E00348FEF71DFB00BF61
:102360001437BD4690BD00BF1C50000090B585B02D
:1023700000AF7860084611461A460346FB700B46CC
:10238000BB7013467B700023FB817B78032B00F22C
:10239000378101A252F823F0A9230000372400005E
:1023A000C12400008B250000BB78012B1FD1BB8C02
:1023B0005B089BB2FC78184602F094F80346194675
:1023C0007A6823465B0023445B01134412330A46B8
:1023D0001A80FA78BB8C5B0898B2796813465B0068
:1023E00013445B010B44163302461A800BE1BB78A1
:1023F000002B40F00881BB8C5B089BB2FC78184630
:1024000002F070F8034619467A6823465B002344BD
:102410005B0113441A330A461A80FA78BB8C5B08B6
:1024200098B2796813465B0013445B010B441E337A
:1024300002461A80E7E0BB78012B1ED13A8CBB8C98
:10244000D31A5B08FA7898B2796813465B00134494
:102450005B010B44123302461A803A8CBB8C134446
:102460005B08FA7898B2796813465B0013445B0105
:102470000B44163302461A80C7E0BB78002B40F0AD
:10248000C4803A8CBB8CD31A5B08FA7898B279680E
:1024900013465B0013445B010B441A3302461A8057
:1024A0003A8CBB8C13445B08FA7898B2796813466F
:1024B0005B0013445B010B441E3302461A80A4E008
:1024C0003B8C5B08FB81BB78012B23D1FC78FB891B
:1024D000184602F007F8034619467A6823465B005F
:1024E00023445B01134412330A461A80FB891846C1
:1024F00001F0F8FF03461946FA78BB8C0B4498B2FA
:10250000796813465B0013445B010B4416330246A3
:102510001A807BE0BB78002B23D1FC78FB8918461E
:1025200001F0E0FF034619467A6823465B00234426
:102530005B0113441A330A461A80FB89184601F0DE
:10254000D1FF03461946FA78BB8C0B4498B27968E0
:1025500013465B0013445B010B441E3302461A8092
:1025600054E0FB89184601F0BDFF03461946FA788E
:10257000BB8C0B4498B2796813465B0013445B0133
:102580000B440A3302461A8040E0BB78012B14D179
:10259000FA78796813465B0013445B010B441233ED
:1025A00000221A80FA78796813465B0013445B01B5
:1025B0000B441633BA8C1A8028E0BB78002B14D158
:1025C000FA78796813465B0013445B010B441A33B5
:1025D00000221A80FA78796813465B0013445B0185
:1025E0000B441E33BA8C1A8010E0FA7879681346CF
:1025F0005B0013445B010B440A33BA8C1A8005E07C
:102600000448FEF7C9F900BF00E000BF00BF14375F
:10261000BD4690BD3450000080B586B000AFF86074
:102620000B467A60FB727B68002B02D19E48FEF756
:10263000B3F97B689B78022B04D1FB7A002B01D184
:1026400001232DE17B689B79012B04D1FB7A002BC0
:1026500001D1012324E17B685B78012B03D07B68E7
:102660005B78022B04D1FB7A002B01D1012317E107
:10267000F868FFF78DFD0246FB7A8C4992001344FF
:1026800031F81330184601F0E7FEFB68B3F88E31DD
:102690009BB243F00F039AB2FB68A3F88E21FA7A3B
:1026A000F96813465B0013445B010B4404331B8839
:1026B000FB82FB8A23F40C5323F03F035B045B0C87
:1026C000FB827B689B7803F003039AB27B681B7ADA
:1026D000DB009BB203F038039BB213439AB27B68D2
:1026E0005B781B029BB203F440739BB213439AB214
:1026F0007B681B78DB039BB213439AB27B689B79A0
:102700009B009BB203F004039BB213439AB2FB8A73
:102710001343FB827B681B79022B1FD0022B2FDC1B
:10272000002B02D0012B05D02AE0FB8A43F4005392
:10273000FB8228E0FB68B3F888319BB21AB2FB7ABF
:102740000C33012101FA03F31BB2DB431BB213402C
:102750001BB29AB2FB68A3F8882114E0FB68B3F8B7
:1027600088319BB21AB2FB7A0C33012101FA03F3D0
:102770001BB213431BB29AB2FB68A3F8882102E094
:102780004B48FEF709F9FA7AF96813465B001344DF
:102790005B010B440433FA8A1A80FA7AF96813460B
:1027A0005B0013445B010B4406331B88FB82FB8AEE
:1027B00023F074031B051B0DFB827B68DB781B0178
:1027C0009BB203F070039AB27B68DB791B039BB268
:1027D00013439AB2FB8A1343FB827B685B79032B1A
:1027E0002AD801A252F823F0F9270000032800009C
:1027F0001528000027280000FB8A43F00403FB8211
:102800001DE0FB8A43F40063FB82FB8A23F48063B0
:10281000FB8214E0FB8A23F40063FB82FB8A43F40F
:102820008063FB820BE0FB8A43F40063FB82FB8A3C
:1028300043F48063FB8202E01E48FEF7ADF8FA7AAB
:10284000F96813465B0013445B010B440633FA8AB4
:102850001A80FB68B3F88231FB680022A3F882215A
:10286000FB680022A3F886217B681B7A002B16D117
:10287000FA7AF96813465B0013445B010B44043396
:102880001B889BB2FA7A43F0400398B2F96813466A
:102890005B0013445B010B44043302461A8000239F
:1028A00018461837BD4680BD4C5000002C5500001E
:1028B000645000007C50000080B582B000AF7860AA
:1028C0007B68002B02D11348FEF766F8092200212D
:1028D000786801F0C6FF7B6800221A707B680022CE
:1028E0009A717B6800229A707B680022DA707B689C
:1028F00000225A707B6800221A727B680022DA710B
:102900007B6800225A717B6800221A7100BF083769
:10291000BD4680BD9450000090B58BB002AFF8600A
:102920007A601A460B46FB721346BB727B68002B1B
:1029300002D1AC48FEF730F87B6B002B02D1AA48DD
:10294000FEF72AF8BB7A002B02D1A848FEF724F83C
:10295000BB6B002B02D1A648FEF71EF800237B8339
:1029600000233B830023BB7700237B770023FB7787
:1029700013E0FB7FDB007A6813441B78022B09D13C
:1029800097F83030002B03D097F83030012B01D16D
:102990000123A4E1FB7F0133FB77FA7FBB7A9A42E4
:1029A000E7D3FA7AF96813465B0013445B010B44E2
:1029B00006331B889BB21B0903F00703BA6B22FA8C
:1029C00003F37B617A697B6BB2FBF3F37B837B8BD5
:1029D00097F83020F97AF868FFF700FC0023FB77BE
:1029E00077E17B8B7A68527802FB03F31A46814BBE
:1029F000A3FB02235B093B837B681A7897F83000BE
:102A0000F97A3B8B01937B8B00930346F868FFF7C1
:102A1000ADFC7B681B78012B13D10A23BB770823FD
:102A20007B777B689B88FA7AC3F30A0398B2F968CC
:102A300013465B0013445B010B44303302461A809B
:102A40001BE07B681B78002B13D10923BB77042381
:102A50007B777B689B88FA7AC3F30A0398B2F9689C
:102A600013465B0013445B010B44323302461A8069
:102A700003E00823BB7700237B777B681B78022B5E
:102A800077D0022B00F3AB80002B3AD0012B40F023
:102A9000A680FA7AF96813465B0013445B010B4485
:102AA00022331B889BB2FA7A23F0300398B2F9687C
:102AB00013465B0013445B010B44223302461A8029
:102AC000FA7AF96813465B0013445B010B44223326
:102AD0001B889BB21AB27B689B791BB21B011BB28D
:102AE00003F030031BB213431BB2FA7A98B2F968B1
:102AF00013465B0013445B010B44223302461A80E9
:102B00007CE0FA7AF96813465B0013445B010B44DE
:102B100022331B889BB2FA7A23F00C0398B2F9682F
:102B200013465B0013445B010B44223302461A80B8
:102B3000FA7AF96813465B0013445B010B442233B5
:102B40001B889BB21AB27B689B791BB29B001BB29D
:102B500003F00C031BB213431BB2FA7A98B2F96864
:102B600013465B0013445B010B44223302461A8078
:102B700044E0FA7AF96813465B0013445B010B44A6
:102B800022331B889BB2FA7A23F0030398B2F968C8
:102B900013465B0013445B010B44223302461A8048
:102BA000FA7AF96813465B0013445B010B44223345
:102BB0001B889BB21AB27B689B791BB203F003039C
:102BC0001BB213431BB2FA7A98B2F96813465B0042
:102BD00013445B010B44223302461A800EE0064880
:102BE000FDF7DAFEAC500000C8500000E4500000D1
:102BF000005100001F85EB511C5100007B689B7841
:102C0000002B1FD1FA7AF96813465B0013445B016D
:102C10000B4422331B889BB21AB2BB7F012101FAFD
:102C200003F31BB2DB431BB213401BB2FA7A98B218
:102C3000F96813465B0013445B010B4422330246E0
:102C40001A801CE0FA7AF96813465B0013445B01B2
:102C50000B4422331B889BB21AB2BB7F012101FABD
:102C600003F31BB213431BB2FA7A98B2F968134606
:102C70005B0013445B010B44223302461A807B68DD
:102C8000DB79002B11D0FB68B3F880319BB21AB20C
:102C9000797FFB7A0B44012101FA03F31BB2134342
:102CA0001BB29AB2FB68A3F88021FA7A7B681B7882
:102CB0001C467B6858780C4913465B0013440B4450
:102CC000234402461A707B6808337B60FB7F013324
:102CD000FB77FA7FBB7A9A42FFF483AE0023184653
:102CE0002437BD4690BD00BF6001002080B586B08E
:102CF00002AF7860084611461A460346FB700B4641
:102D0000BB7013467B703B7E642B02D90A48FDF7EB
:102D100043FE3B7E1846FFF723FA0346FB81787893
:102D2000BA78F978FB8900930346786800F006F8D2
:102D300000BF1037BD4680BD3451000090B587B04C
:102D400002AF7860084611461A460346FB700B46F0
:102D5000BB7013467B700023BB8100237B81FA7814
:102D6000796813465B0013445B010B4404331B88F2
:102D70009BB203F44073B3F5007F02D10023FB73D1
:102D800001E0FB78FB73FA7B796813465B00134420
:102D90005B010B440E331B883B81FA7B7968134639
:102DA0005B0013445B010B4402331B889BB23A89DE
:102DB000D31A9BB20133BB81BB893A8C02FB03F36C
:102DC0001A46134BA3FB0223DB0B7B817878BA787E
:102DD000F9787B890193BB89009303467868FFF7F4
:102DE000C5FA3B8C642202FB03F3094AA2FB0323CE
:102DF000DB0BFA78B978DCB2064813465B00134463
:102E000003440B4422461A7000BF1437BD4690BDE0
:102E1000018000806001002080B586B000AFF860BE
:102E20000B467A60FB727B68002B02D17648FDF777
:102E3000B3FDFB68B3F88C31FB827B685B78002BB9
:102E40000BD0FB7A0C33012202FA03F31AB2B7F962
:102E5000163013431BB2FB820CE0FB7A0C330122C9
:102E600002FA03F31BB2DB431AB2B7F91630134070
:102E70001BB2FB827B681B78002B2AD0FB7A0833BD
:102E8000012202FA03F31BB2DB431AB2B7F9163080
:102E900013401BB2FB827B681B78022B0BD1FB7AA1
:102EA0000433012202FA03F31AB2B7F916301343BE
:102EB0001BB2FB8218E0FB7A0433012202FA03F30F
:102EC0001BB2DB431AB2B7F9163013401BB2FB82B8
:102ED0000AE0FB7A0833012202FA03F31AB2B7F9C7
:102EE000163013431BB2FB82FB68FA8AA3F88C21CD
:102EF0007B689B78002B12D0FB68B3F894319BB2AF
:102F00001AB2FB7A012101FA03F31BB2DB431BB2B5
:102F100013401BB29AB2FB68A3F894210FE0FB6840
:102F2000B3F894319BB21AB2FB7A012101FA03F390
:102F30001BB213431BB29AB2FB68A3F89421FB683F
:102F4000B3F88E31FB82FB7A0433012202FA03F3D9
:102F50001AB2FB7A0C33012101FA03F31BB21343BB
:102F60001BB2DB431AB2B7F9163013401BB2FB8217
:102F70007B68DB78032B3AD801A252F823F000BF1C
:102F8000F52F0000912F0000A92F0000C12F000095
:102F9000FB7A0C33012202FA03F31AB2B7F91630A6
:102FA00013431BB2FB8226E0FB7A0433012202FAB0
:102FB00003F31AB2B7F9163013431BB2FB821AE0BF
:102FC000FB7A0C33012202FA03F31AB2B7F9163076
:102FD00013431BB2FB82FB7A0433012202FA03F390
:102FE0001AB2B7F9163013431BB2FB8203E007484D
:102FF000FDF7D2FC00BFFB68FA8AA3F88E2100BF60
:103000001837BD4680BD00BF605100007C510000F4
:1030100080B582B000AF78607B68002B02D10C488D
:10302000FDF7BAFC04220021786801F01AFC7B68E5
:1030300000221A707B6800225A707B6801229A7005
:103040007B680022DA7000BF0837BD4680BD00BF34
:103050009451000080B586B000AF78607B681B0C8F
:103060007B617B689BB23B6101223B6902FA03F3FF
:10307000FB603B691F2B02D90D48FDF78DFC4FF01B
:1030800080417B695033FA6841F82320094BBB60CB
:1030900000BF7B699B00BA6813441A68FB68134041
:1030A000FA689A42F5D000BF00BF1837BD4680BD10
:1030B000AC5100000001004080B582B000AF7860E4
:1030C00039603B68002B02D11048FDF765FC3B6876
:1030D0001B7803F003027B681A643B685B78002B63
:1030E00010D07B681B6C43F080427B681A6400BF81
:1030F0007B681B6C002BFBDA7B681B6C23F0804227
:103100007B681A6400BF0837BD4680BDCC51000003
:1031100080B582B000AF786039603B68002B02D187
:103120001F48FDF739FC7B681B6903F00103002B86
:1031300002D042F6A0032FE0786801F0E1F90346DF
:10314000002B02D142F6A60326E0786801F0E9F9E7
:103150000346002B06D03B685B78002B02D142F679
:10316000A50319E0786801F0EDF903461A463B68BB
:103170001B789A4209D00121786801F04EFA3B6829
:103180001B781946786801F018FA3B685B78194695
:10319000786801F042FA002318460837BD4680BD22
:1031A000EC51000080B584B000AF786039603B68B6
:1031B000002B02D11448FDF7EFFB0023FB607B6876
:1031C0001B6903F00103002B02D042F6A00317E0B5
:1031D0003B685B781946786801F04EFAF860FB6846
:1031E000002B05D13B681B781946786801F0CCF9B3
:1031F00000BF7B681B6903F00103002BF9D1FB685A
:1032000018461037BD4680BD0C52000080B500AF97
:10321000414BD3F88830404A43F47003C2F88830F9
:103220003D4BD3F888303C4A43F00F03C2F8883056
:10323000394BD3F88C30384A43F4406343F00303EE
:10324000C2F88C304FF080430022C3F8442E4FF078
:103250008043D3F800344FF0804223F40033C2F8A7
:1032600000342D4B2D4A9A604FF08043D3F8243818
:103270004FF0804223F00103C2F82438284B9B6AA8
:1032800023F44023264A43F400239362244BDB6A51
:1032900023F44023224A43F40023D362214BD3F882
:1032A0000031204A43F48053C2F800311D4BD3F85B
:1032B00044311C4A23F48033C2F84431194B3C2278
:1032C000C3F84421174BD3F84431164A43F48033F2
:1032D000C2F84431124B9B6A23F00303104A43F0B7
:1032E000020393620E4BDB6A23F003030C4A43F0A4
:1032F0000203D3620C4B00229A600C4B00229A60AE
:10330000084BD3F80033074A43F08073C2F8003308
:1033100001F0D6F900BF80BD00ED00E00000000024
:103320000060024000500440004002400050024053
:1033300080B58EB000AF786039600023FB8607F15E
:1033400008031846FEF768FD3B685B68BB603B6896
:103350001B7A3B733B685B7AFB733B689B7A002B61
:1033600014BF01230023DBB287F82F303B68DB7AE0
:10337000002B14BF01230023DBB287F82E303B68FB
:10338000DB7B002B08D03B68DB7B082B28BF0823A6
:10339000DBB2013BDBB23B743B681B7C002B08D0EB
:1033A0003B681B7C082B28BF0823DBB2013BDBB248
:1033B0007B743B681B7B002B14BF01230023DBB213
:1033C000BB743B685B7B002B14BF01230023DBB283
:1033D000FB740123BB750123FB753B689B7B1A467D
:1033E0000B4B53F822003B681A6807F10803194693
:1033F000FEF738FB38633B6B002B04D0386B01F0D1
:1034000066F90346FB86FB8E18463837BD4680BDFD
:103410003C55000080B584B000AF786039607B68AF
:10342000002B02D11748FDF7B7FA3B68002B02D1F9
:103430001548FDF7B1FA3B689B7B092B02D913486D
:10344000FDF7AAFA3B689B7B1A46114B53F82230D2
:10345000002B02D10F48FDF79FFA39687868FFF713
:1034600067FF0346FB81FB89002B05D17B68BB60AE
:103470003B689A7BBB681A70FB8918461037BD46BB
:1034800080BD00BF2C52000058520000885200003E
:103490003C550000F452000080B586B000AFF860E3
:1034A000B9607A60FB68002B02D11248FDF774FA0C
:1034B000BB68002B02D11048FDF76EFA7B68002B29
:1034C00002D10E48FDF768FAFB687B617B691B78C7
:1034D0001A460B4B53F822307A68B9681846FEF743
:1034E0008FFD3861386901F0F2F803461846183745
:1034F000BD4680BD44530000705300009853000047
:103500003C55000080B586B000AFF860B9607A60C5
:10351000FB68002B02D11048FDF73EFABB68002B78
:1035200002D10E48FDF738FA7B68002B02D10C4817
:10353000FDF732FAFB687B617B691B781A46094B01
:1035400053F822307A68B9681846FEF725FD002343
:1035500018461837BD4680BDC0530000EC5300002C
:10356000145400003C55000080B582B000AF43F217
:103570001800FDF739FC0848FFF76CFD074B7B602E
:103580007B6801224FF4E1310420FCF79BFF00BF70
:103590000837BD4680BD00BF0F000100001BB7000B
:1035A00080B58AB000AF40F21A2001F0A4F843F2CF
:1035B000FE30FDF719FC274B1B88BB8407F1240361
:1035C00019462548FFF7EEFD244B1B883B8407F185
:1035D000200319462048FFF79BFD214B9B6823F0F1
:1035E0000F031F4A43F0030393601E4B1B88BB83EA
:1035F00007F11C0319461848FFF75EFD1A48FDF74E
:1036000089FB3B4600221A605A609A60DA601A61B0
:103610005A619A61154B3B6008237B600123BB60B4
:103620003223FB60124BBB613B461846FDF766FD3B
:103630000020FDF7BDFB46F2FE30FDF7D5FB012172
:103640002020FDF729FC0B4B094A1A6000BF2837E0
:10365000BD4680BD70550000005004407455000008
:103660000030044078550000006CDC02B0350002E8
:1036700080D1F0080800002080B586B000AFF86067
:10368000B9607A607B68002B02D10848FDF784F9A5
:10369000BB6820339B00FA6813447B617B697A68BE
:1036A00012881A8000BF1837BD4680BD3C54000008
:1036B00080B586B000AF0E2001F086F80F2001F033
:1036C00083F80023BB827B7D022262F303037B75B8
:1036D0007B7D43F010037B7507F114031A46082124
:1036E0002F48FFF7C9FF00233B827B7C022262F355
:1036F00003037B747B7C43F010037B7407F110039E
:103700001A4609212648FFF7B7FF0023BB817B7BC0
:10371000052262F303037B737B7B43F010037B730F
:1037200007F10C031A4602211E48FFF7A5FF0023EC
:103730003B817B7A052262F303037B727B7A43F041
:1037400010037B7207F108031A4604211548FFF79E
:1037500093FF0023BB807B79052262F303037B7117
:103760007B7943F010037B713B1D1A4606210D48FF
:10377000FFF782FF00233B807B78052262F303037F
:103780007B707B7843F010037B703B461A46072121
:103790000448FFF771FF00BF1837BD4680BD00BF6A
:1037A000007011400080114010B5174A17490020E1
:1037B00001F0D7F84FF480734FF480620021124873
:1037C00001F069F8124A1349012001F0CAF84FF4D8
:1037D00080734FF4806200210D4801F05CF80E4BBD
:1037E0001B68022B0EDD0D4A0A49022001F0B9F8D0
:1037F000BDE810404FF480734FF480620021074809
:1038000001F049B810BD00BF700100208C550000C8
:10381000AC0100208E55000088550000E801002012
:103820002DE9F041D5688046EB020E4614465769F3
:1038300005D5384601F03EFA45F01005A061124B5F
:103840002B408BB13846A16901F03DFA002806DA19
:10385000E3684FF0FF3043F08003E36011E025F4AC
:10386000003525F01005E56032464146384601F046
:1038700030FA20F00043F61AA3693344A36100280C
:10388000E6D1BDE8F08100BF10000200F8B50446A3
:1038900038B905460A4B0B4E1F68A74205DC28467F
:1038A000F8BDBDE8F84001F0EFB8304601F0ECF8A3
:1038B000002818BF4FF0FF3501343C36EDE700BF5C
:1038C00088550000700100202DE9F843C6683B4B85
:1038D000044633400D469046D0F814906BB14846EC
:1038E00001F0EBF9074640B9B8F1010F09D0B8F182
:1038F000020F31D0B8F1000F07D002273846BDE8DB
:10390000F883204600F05CF80544002DF5DBB30495
:1039100004D52368E26A9A4238BFE362A069A842EC
:103920000EDC2368E26A934238BF134622691918F5
:10393000891AA94204DB216B00EB010CAC452CDC9D
:103940000023C4E9013346F02006A56226F40326CD
:1039500026F04006E660D1E7484601F0ABF9B0F149
:10396000000CE26804DA42F080020127E260C5E759
:103970002168A369E06A81422CBF5B181B1821698A
:103980009206A3EB010303D5A26A9342B8BF134684
:103990006345ACBFED186544B7E72D1AB00744BFC7
:1039A000691AA160F10744BF9B1AEB1A2A4448BF69
:1039B0006360226026F02006C8E700BF0300100005
:1039C000C3689A0705D121220D4B4FF0FF301A60D2
:1039D000704703F020021B0309D512B1806A013839
:1039E00070470368826900691344181AF7E70AB13F
:1039F000806A70470368826900691344181A704727
:103A00006C0100200FB480B582B000AF00237B6052
:103A100007F114033B6039683869FCF797FD78605B
:103A20007B6818460837BD46BDE8804004B0704743
:103A300080B586B000AFB9607A603B600346FB7327
:103A4000BB687B610BE0FA7B3B6A104698473B689A
:103A50001B685A1C3B681A607B6901337B617A6979
:103A60007B689A42EFDB00BF00BF1837BD4680BDC0
:103A700080B48FB000AFF860B9607A603B6000231B
:103A8000FB62FB68BB62BB6A5A1CBA6200221A70F6
:103A900000237B6000237B6200233B620023FB61E9
:103AA00000237B630023BB6100233B6300237B6116
:103AB000BB681B687B637B6B002B30D1BB6A3022F9
:103AC0001A70FB6A0133FB62FB6A2CE03B687A6B7D
:103AD000B2FBF3F3BB613B68BA6902FB03F37A6B99
:103AE000D31A3B633B6B092B03D83B6B30333B63EF
:103AF0000AE097F84030002B01D0412200E061221B
:103B00003B6B13440A3B3B63BB697B63BB6A5A1C38
:103B1000BA623A6BD2B21A70FB6A0133FB627B6BFA
:103B2000002BD3D1FB6A18463C37BD465DF8047BB9
:103B3000704780B485B000AFF860B9607A60002348
:103B400018461437BD465DF8047B704708B5FCF78E
:103B50002DFC08BD08B5FCF729FC08BD08B5FCF72D
:103B600025FC08BD08B5FCF721FC08BD08B5FCF72D
:103B70001DFC08BD08B5FCF719FC08BD08B5FCF72D
:103B800015FC08BD08B5FCF711FC08BD08B5FCF72D
:103B90000DFC08BD08B5FCF709FC08BD08B5FCF72D
:103BA00005FC08BD08B5FCF701FC08BD08B5FCF72D
:103BB000FDFB08BD08B5FCF7F9FB08BD08B5FCF72F
:103BC000F5FB08BD08B5FCF7F1FB08BD08B5FCF72F
:103BD000EDFB08BD08B5FCF7E9FB08BD08B5FCF72F
:103BE000E5FB08BD08B5FCF7E1FB08BD08B5FCF72F
:103BF000DDFB08BD08B5FCF7D9FB08BD08B5FCF72F
:103C0000D5FB08BD08B5FCF7D1FB08BD08B5FCF72E
:103C1000CDFB08BD08B5FCF7C9FB08BD08B5FCF72E
:103C2000C5FB08BD08B5FCF7C1FB08BD08B5FCF72E
:103C3000BDFB08BD08B5FCF7B9FB08BD08B5FCF72E
:103C4000B5FB08BD08B5FCF7B1FB08BD08B5FCF72E
:103C5000ADFB08BD08B5FCF7A9FB08BD08B5FCF72E
:103C6000A5FB08BD08B500F09BFB08BD08B500F03A
:103C70009EFB08BD08B500F0A1FB08BD08B500F02B
:103C8000A4FB08BD08B500F0A7FB08BD08B500F00F
:103C9000AAFB08BD08B500F0ADFB08BD08B500F0F3
:103CA000B0FB08BD08B500F0B3FB08BD08B500F0D7
:103CB000B6FB08BD08B5FCF779FB08BD08B5FCF7F5
:103CC00075FB08BD08B5FCF771FB08BD08B5FCF72E
:103CD0006DFB08BD08B5FCF769FB08BD08B5FCF72E
:103CE00065FB08BD08B5FCF761FB08BD08B5FCF72E
:103CF0005DFB08BD08B5FCF759FB08BD08B5FCF72E
:103D000055FB08BD08B5FCF751FB08BD08B5FCF72D
:103D10004DFB08BD08B5FCF749FB08BD08B5FCF72D
:103D200045FB08BD08B5FCF741FB08BD08B5FCF72D
:103D30003DFB08BD08B5FCF739FB08BD08B5FCF72D
:103D400035FB08BD08B5FCF731FB08BD08B5FCF72D
:103D50002DFB08BD08B5FCF729FB08BD08B5FCF72D
:103D600025FB08BD08B5FCF721FB08BD08B5FCF72D
:103D70001DFB08BD08B5FCF719FB08BD08B5FCF72D
:103D800015FB08BD08B5FCF711FB08BD08B5FCF72D
:103D90000DFB08BD08B5FCF709FB08BD08B5FCF72D
:103DA00005FB08BD08B5FCF701FB08BD08B5FCF72D
:103DB000FDFA08BD08B5FCF7F9FA08BD08B5FCF72F
:103DC000F5FA08BD08B5FCF7F1FA08BD08B5FCF72F
:103DD000EDFA08BD08B5FCF7E9FA08BD08B5FCF72F
:103DE000E5FA08BD08B5FCF7E1FA08BD08B5FCF72F
:103DF000DDFA08BD08B5FCF7D9FA08BD08B5FCF72F
:103E0000D5FA08BD08B5FCF7D1FA08BD08B5FCF72E
:103E1000CDFA08BD08B5FCF7C9FA08BD08B5FCF72E
:103E2000C5FA08BD08B5FCF7C1FA08BD08B5FCF72E
:103E3000BDFA08BD08B5FCF7B9FA08BD08B5FCF72E
:103E4000B5FA08BD08B5FCF7B1FA08BD08B5FCF72E
:103E5000ADFA08BD08B5FCF7A9FA08BD08B5FCF72E
:103E6000A5FA08BD08B5FCF7A1FA08BD08B5FCF72E
:103E70009DFA08BD08B5FCF799FA08BD08B5FCF72E
:103E800095FA08BD08B5FCF791FA08BD08B5FCF72E
:103E90008DFA08BD08B5FCF789FA08BD08B5FCF72E
:103EA00085FA08BD08B5FCF781FA08BD08B5FCF72E
:103EB0007DFA08BD08B5FCF779FA08BD08B5FCF72E
:103EC00075FA08BD08B5FCF771FA08BD08B5FCF72E
:103ED0006DFA08BD08B5FCF769FA08BD08B5FCF72E
:103EE00065FA08BD08B5FCF761FA08BD08B5FCF72E
:103EF0005DFA08BD08B5FCF759FA08BD08B5FCF72E
:103F000055FA08BD08B5FCF751FA08BD08B5FCF72D
:103F10004DFA08BD08B5FCF749FA08BD08B5FCF72D
:103F200045FA08BD08B5FCF741FA08BD08B5FCF72D
:103F30003DFA08BD08B5FCF739FA08BD08B5FCF72D
:103F400035FA08BD08B5FCF731FA08BD08B5FCF72D
:103F50002DFA08BD08B5FCF729FA08BD08B5FCF72D
:103F600025FA08BD08B5FCF721FA08BD08B5FCF72D
:103F70001DFA08BD08B5FCF719FA08BD08B5FCF72D
:103F800015FA08BD08B5FCF711FA08BD08B5FCF72D
:103F90000DFA08BD08B5FCF709FA08BD08B5FCF72D
:103FA00005FA08BD08B5FCF701FA08BD08B5FCF72D
:103FB000FDF908BD08B5FCF7F9F908BD08B5FCF72F
:103FC000F5F908BD08B5FCF7F1F908BD08B5FCF72F
:103FD000EDF908BD08B5FCF7E9F908BD08B5FCF72F
:103FE000E5F908BD08B5FCF7E1F908BD08B5FCF72F
:103FF000DDF908BD08B5FCF7D9F908BD08B5FCF72F
:10400000D5F908BD08B5FCF7D1F908BD08B5FCF72E
:10401000CDF908BD08B5FCF7C9F908BD08B5FCF72E
:10402000C5F908BD08B5FCF7C1F908BD80B483B077
:1040300000AF78600B46FB707B68B3F888319AB2AA
:10404000FB789BB21B029BB203F470639BB21343D9
:104050009AB27B68A3F8882100BF0C37BD465DF893
:10406000047B704780B483B000AF78600B46FB7070
:104070001346BB70BB78002B0ED07B68B3F8883139
:104080009AB2FB789BB203F00F039BB213439AB230
:104090007B68A3F888210EE07B68B3F888319AB278
:1040A000FB789BB21B019BB2DBB29BB213439AB26B
:1040B0007B68A3F8882100BF0C37BD465DF8047B00
:1040C000704704207146084202D0EFF3098001E0F6
:1040D000EFF3088081690A884BF6AB639A4200D0FF
:1040E000FEE7023181610168012901D0002100E071
:1040F00020210160704700BF80B52DED028B84B098
:1041000000AF0023FB604FF000033B60FCF79CFF17
:104110000346FB60FCF7D6FD0346002B24D0FDF7D9
:1041200003FA0346BB60FDF73FFA03467B60FA687B
:10413000BB68B2FBF3F3FB60FB6807EE903AB8EEA6
:10414000678AFDF791FAF0EE407A68EE277AC7EDBC
:10415000007A7B6807EE903AB8EE677AD7ED006A8E
:10416000C6EE877AC7ED007AD7ED007AFCEEE77AE3
:1041700017EE903A18461037BD46BDEC028B80BD55
:1041800080B52DED028B84B000AF0023BB604FF0F3
:104190000003FB60FCF786FFB860FCF7A7FD034651
:1041A000002B22D0FDF7E0F97860FDF72DFA38609A
:1041B000BA687B68B2FBF3F3BB60BB6807EE903A6A
:1041C000B8EE678AFDF7A6FAF0EE407A68EE277A35
:1041D000C7ED037A3B6807EE903AB8EE677AD7ED01
:1041E000036AC6EE877AC7ED037AD7ED037AFCEE51
:1041F000E77A17EE903A18461037BD46BDEC028BB1
:1042000080BD80B582B000AF00237B60FDF7CCF8A5
:1042100002464FF08043D3F88033DBB20133B2FB68
:10422000F3F37B607B6818460837BD4680BD80B5D8
:1042300084B000AF78600023FB607B68002B04D162
:104240004FF08043D3F8603203E04FF08043D3F85F
:104250006432022B19D0022B1BD8002B02D0012B69
:104260000FD016E0FDF7A0F802464FF080417B68C2
:10427000C03351F82330DBB20133B2FBF3F3FB6000
:104280000AE0FCF7D7FFF86006E0FDF729F9F860CF
:1042900002E00023FB6000BFFB6818461037BD46F4
:1042A00080BD80B483B000AF78607B681846A0F111
:1042B00001000028FBD100BF0C37BD465DF8047B30
:1042C000704780B485B000AF0346FB80FB881B0AB3
:1042D000FB60FB88DBB2BB60FB68FA2B12D14FF0AE
:1042E0008043D3F8382E0121BB6801FA03F34FF065
:1042F00080411343C1F8383E4FF080434022C3F859
:104300002C221EE0FB68FB2B12D14FF08043D3F828
:104310003C2E0121BB6801FA03F34FF080411343A7
:10432000C1F83C3E4FF080438022C3F82C2208E0C5
:104330004FF080410122BB689A40FB68883341F806
:10434000232000BF1437BD465DF8047B704780B45E
:1043500083B000AF78600B46FB70FB78002B01D177
:10436000012317E0FB78032B0ED87B68D3F8F82FD6
:10437000FB78033322FA03F303F00103002B14BF8D
:1043800001230023DBB205E0FB78072B01D10123D9
:1043900000E0002318460C37BD465DF8047B7047EB
:1043A00080B500AF0020FDF7DBFA00BF80BD80B50F
:1043B00000AF0120FDF7D4FA00BF80BD80B500AF8B
:1043C0000220FDF7CDFA00BF80BD80B500AF03200D
:1043D000FDF7C6FA00BF80BD80B500AF0420FDF731
:1043E000BFFA00BF80BD80B500AF0520FDF7B8FA69
:1043F00000BF80BD80B500AF0620FDF7B1FA00BF59
:1044000080BD80B500AF0720FDF7AAFA00BF80BDD0
:1044100080B500AF0820FDF7A3FA00BF80BD80B5CE
:1044200000AF0920FDF79CFA00BF80BD80B483B0C7
:1044300000AF78607B689B6843F002027B689A60FB
:104440007B689B6823F002027B689A6000BF0C3790
:10445000BD465DF8047B704780B485B000AF03466D
:10446000FB80FB881B0AFB60FB88DBB2BB60FB6840
:10447000FA2B12D14FF08043D3F8382E0121BB68BC
:1044800001FA03F34FF080411343C1F8383E4FF077
:1044900080434022C3F82C221EE0FB68FB2B12D184
:1044A0004FF08043D3F83C2E0121BB6801FA03F39F
:1044B0004FF080411343C1F83C3E4FF080438022CF
:1044C000C3F82C2208E04FF080410122BB689A40DB
:1044D000FB68883341F8232000BF1437BD465DF8E0
:1044E000047B704780B483B000AF0346FB80FB8839
:1044F0005B429BB218460C37BD465DF8047B7047A3
:1045000080B483B000AF78607B68D3F800311B0DB6
:1045100003F00303DBB218460C37BD465DF8047B9D
:10452000704780B485B000AF78607B68D3F8003105
:1045300003F07C53FB60FB6818461437BD465DF8FA
:10454000047B704780B483B000AF78607B68D3F899
:1045500000319B0803F00303DBB218460C37BD465D
:104560005DF8047B704780B483B000AF78607B68EF
:10457000D3F80031DBB203F00103DBB218460C378D
:10458000BD465DF8047B704780B483B000AF7860AF
:104590000B46FB707B68D3F8003123F44062FB7854
:1045A0009B0203F440631A437B68C3F8002100BFF9
:1045B0000C37BD465DF8047B704780B582B000AF14
:1045C00078600B46FB707868FFF7BCFF03461A461D
:1045D000FB7893421CD07868FFF7C5FF0346012B98
:1045E00002D042F6A80314E07B68D3F8003123F030
:1045F0000C02FB789B0003F00C031A437B68C3F8A2
:10460000002100BF7B681B6903F00103002BF9D177
:10461000002318460837BD4680BD80B582B000AF84
:1046200078600B46FB70FB78002B08D17868FFF7A9
:1046300078FF0346002B02D042F6A50318E0FB7872
:10464000012B08D17868FFF75BFF0346002B02D1EE
:1046500042F6A6030CE07B68D3F8003123F0010298
:10466000FB7803F001031A437B68C3F800210023A1
:1046700018460837BD4680BD80B582B000AF78606F
:104680000B46FB70FB78022B08D17868FFF738FFE8
:104690000346002B02D142F6A6030DE07B68D3F857
:1046A000003123F44072FB781B0203F440731A4379
:1046B0007B68C3F80021002318460837BD4680BD3B
:1046C00080B400AF00BFBD465DF8047B704780B486
:1046D00085B000AF78607B68002B02D10023FB819E
:1046E00002E042F6AF73FB81FB8918461437BD46E2
:1046F0005DF8047B704780B485B000AF0346FB8053
:10470000FB881B0AFB60FB88DBB2BB60FB68FA2BF3
:1047100012D14FF08043D3F8382E0121BB6801FA43
:1047200003F34FF080411343C1F8383E4FF080430C
:104730004022C3F82C221EE0FB68FB2B12D14FF065
:104740008043D3F83C2E0121BB6801FA03F34FF0FC
:1047500080411343C1F83C3E4FF080438022C3F8B0
:104760002C2208E04FF080410122BB689A40FB6890
:10477000883341F8232000BF1437BD465DF8047B21
:10478000704780B500AFFEF70BFF00BF80BD80B55E
:1047900000AF01214FF4AC70FCF77EFB43F2180030
:1047A000FCF722FBFEF784FFFFF7EBFFFEF7DCFED2
:1047B0004FF08043D3F83C3E4FF0804243F0070374
:1047C000C2F83C3E00BF80BD80B485B000AF034658
:1047D000FB80FB881B0AFB60FB88DBB2BB60FB68CD
:1047E000FA2B12D14FF08043D3F8382E0121BB6849
:1047F00001FA03F34FF080411343C1F8383E4FF004
:1048000080434022C3F82C221EE0FB68FB2B12D110
:104810004FF08043D3F83C2E0121BB6801FA03F32B
:104820004FF080411343C1F83C3E4FF0804380225B
:10483000C3F82C2208E04FF080410122BB689A4067
:10484000FB68883341F8232000BF1437BD465DF86C
:10485000047B704708B5FEF7A7FFBDE80840FCF7EA
:104860006BB900F00BBAA8B14FF0805340F80C3C84
:1048700050F8042C72B11368B3F1805F0AD150F87C
:10488000083C516803330B4440F8083C936840F8F7
:10489000043CEDE7704770B5C468A50708D0B2F5D1
:1048A000007F11D0B2F5806F04D0B2F5807F0BD0BD
:1048B000012008E0012300F124011443016101609B
:1048C000C361C460002070BD6FF07F455E1EAE42C4
:1048D000F3D3EDE7034610B59A071C4615D12346DE
:1048E00054F8042BA2F1013121EA020111F0803FBA
:1048F000F5D0D1B299B112F47F4F0ED012F47F0FE0
:1049000014BF23460333013003E01A4612F8011B9B
:1049100009B9181A10BD1346DEE70233F3E7013375
:10492000F1E7C36810B523F020038269C360836A8E
:1049300004469A420ED000F048F8E36823F440534E
:1049400023F0100343F01003E360A36AA36123691B
:10495000E3622360E36823F4804323F04003E360D1
:1049600010BD70B50D4606461046144600F056F8C8
:104970002B78722B17D0772B18D0612B23D10823DB
:1049800048F2020215F8011F2B2912D0622915D016
:104990001B07E260666104D5022200212046FEF773
:1049A00093FF204670BD00230122EBE7042302227F
:1049B000E8E742F0030243F00203E3E742F00402B7
:1049C00043F00103DEE70024EBE738B50446C36893
:1049D00005690168C26A23F40020E06003F08200E8
:1049E000022802D04FF0FF3038BDDB030CD59142D6
:1049F00038BF11468D4209D10023A360E368E56208
:104A000023F480332560E3600020EDE7224628464A
:104A1000491BFEF705FF0028EED0E3E7F0B5D0E92B
:104A20000467C5680446A90789B020D02A0716D4B0
:104A3000FEF72CFF384600F03AF92B0502D5304638
:104A4000FFF711FF6FF3150515F1A54F07D12022D0
:104A50006846216A00F03AF9684600F00BF83C22FB
:104A600000212046FFF7FDFE002009B0F0BD4FF009
:104A7000FF30FAE710B50446FFF72CFF0146204649
:104A8000BDE8104000F01CB9C36870B513F0030610
:104A9000044611D09B0611D5856AFFF742FFE368F3
:104AA000204623F44053E360FFF78FFF00220646C1
:104AB00029462046FEF708FF304670BD8369056829
:104AC0001D440369ED1AEAE75FF0000C30B51C00E5
:104AD00022D112006FD0914206D30546084600212C
:104AE00000F06FF80446284600F06BF80A462146AD
:104AF000BDE830401CF0404F08BF704703D5494225
:104B0000404261F100015FEA8C0C38BF70475B42A4
:104B1000524263F10003704742D41C0C04BF1B04D3
:104B20000CF1100C13F07F4F04BF1B020CF1080CAA
:104B300013F0704F04BF1B010CF1040C13F0404F35
:104B400004BF0CF1020C5FEA83035CBF0CF1010CA3
:104B50005B00CCF1200E22FA0EF4234302FA0CF291
:104B600000FA0CF520FA0EF001FA0CF4204321FAB9
:104B70000EF114461A4600F024F8A4FB0023AA1AEA
:104B800071EB03033CBF1B190138CCF1200E22FA54
:104B90000CF203FA0EF4224323FA0CF30021A7E7E8
:104BA000821A71EB03033CBF02460B464FF0000133
:104BB00041F100009CE700200021BDE8304000F0FA
:104BC0003DB80423B1EB122F09D2090241EA10616A
:104BD0000002013B08BF7047B1EB122FF5D300185C
:104BE000494134BF9142891A4041494134BF914201
:104BF000891A4041494134BF9142891A4041494193
:104C000034BF9142891A4041494134BF9142891AC7
:104C10004041494134BF9142891A4041494134BF22
:104C20009142891A4041494134BF9142891A404119
:104C3000A3F1010313F00F0FD2D170477047C30DDA
:104C40000102D3F19E0210B541F0004103D421FAD4
:104C500002F0002110BDD3F1BE0404D4524201FA87
:104C600002F0E140F6E7FE2B02D9C0F316031BB9B0
:104C7000C00F01380146EDE70020FBE7034613F0C3
:104C8000030F0ED101F0FF0141EA012141EA014188
:104C9000043A24BF43F8041BB2F10402F9D202F132
:104CA0000402013A24BF03F8011BFAE770474FF0F2
:104CB000FF3070474FF0FF3070474FF0FF307047C4
:104CC0004FF0FF3070474FF0FF3070474FF0FF302C
:104CD000704710467047FFFF4153534552542045DB
:104CE00052524F522022202573200A00433A5C5032
:104CF000524F4A454354535C454D42454444454414
:104D00005C4F4D4E49524F5645525C6672646D6D14
:104D100063786E3934375F70776D5F636D33335FFF
:104D2000636F7265305C647269766572732F667347
:104D30006C5F70776D2E683A31313934203A2066D5
:104D4000616C736500000000466C657850574D201B
:104D5000647269766572206578616D706C650A00B1
:104D600050574D20696E697469616C697A61746924
:104D70006F6E206661696C65640A000066736C5F23
:104D8000636F6D6D6F6E5F61726D2E633A3231339A
:104D9000203A20636F756E74203C3D2055494E5477
:104DA00033325F4D4158000066736C5F6C70666C07
:104DB0006578636F6D6D2E633A313333203A20701E
:104DC0006572697068203C3D204C505F464C4558E8
:104DD000434F4D4D5F5045524950485F4C5049320A
:104DE00043416E644C5055415254000066736C5FF1
:104DF0006C70666C6578636F6D6D2E633A31363515
:104E0000203A20696E7374616E6365203C202875BA
:104E1000696E7433325F742941525241595F53496C
:104E20005A4528735F6C70666C6578636F6D6D4270
:104E3000617365290000000066736C5F6C707561BA
:104E400072742E633A313330203A20696E73746184
:104E50006E6365203C2041525241595F53495A4587
:104E600028735F6C70756172744261736573290099
:104E700066736C5F6C70756172742E633A3237358D
:104E8000203A204E554C4C20213D20636F6E6669C0
:104E90006700000066736C5F6C70756172742E63DE
:104EA0003A323736203A203055203C20636F6E6608
:104EB00069672D3E62617564526174655F4270730B
:104EC0000000000066736C5F6C70756172742E6315
:104ED0003A323738203A202875696E74385F742961
:104EE00046534C5F464541545552455F4C505541E1
:104EF00052545F4649464F5F53495A456E28626196
:104F0000736529203E20636F6E6669672D3E747855
:104F10004669666F57617465726D61726B0000005F
:104F200066736C5F6C70756172742E633A323739D8
:104F3000203A202875696E74385F742946534C5F97
:104F4000464541545552455F4C50554152545F4679
:104F500049464F5F53495A456E286261736529205F
:104F60003E20636F6E6669672D3E72784669666F94
:104F700057617465726D61726B00000066736C5FDF
:104F80006C70756172742E633A353733203A204E57
:104F9000554C4C20213D20636F6E66696700000010
:104FA00066736C5F6C70756172742E633A31303465
:104FB00034203A204E554C4C20213D2064617461D0
:104FC0000000000066736C5F6C70756172742E6314
:104FD0003A31313730203A204E554C4C20213D207B
:104FE000646174610000000066736C5F70776D2E01
:104FF000633A3930203A20696E7374616E636520BC
:105000003C2041525241595F53495A4528735F70C1
:10501000776D4261736573290000000066736C5FF1
:1050200070776D2E633A313532203A2066616C73A9
:105030006500000066736C5F70776D2E633A3234E2
:1050400038203A2066616C736500000066736C5FFF
:1050500070776D2E633A323733203A20636F6E6675
:105060006967000066736C5F70776D2E633A333446
:1050700030203A2066616C736500000066736C5FD7
:1050800070776D2E633A333730203A2066616C7347
:105090006500000066736C5F70776D2E633A343381
:1050A00031203A20636F6E666967000066736C5F3B
:1050B00070776D2E633A343937203A2063686E6C0E
:1050C000506172616D73000066736C5F70776D2E56
:1050D000633A343938203A2070776D467265715FD3
:1050E000487A000066736C5F70776D2E633A3439CE
:1050F00039203A206E756D4F6643686E6C73000000
:1051000066736C5F70776D2E633A353030203A20CD
:10511000737263436C6F636B5F487A0066736C5F96
:1051200070776D2E633A353731203A2066616C73A3
:105130006500000066736C5F70776D2E633A3731DF
:1051400031203A20647574794379636C65506572D7
:1051500063656E74203C3D20313030550000000006
:1051600066736C5F70776D2E633A393334203A2062
:105170006661756C74506172616D730066736C5F0B
:1051800070776D2E633A31303032203A2066616C90
:105190007365000066736C5F70776D2E633A313013
:1051A0003232203A20636F6E6669670066736C5F07
:1051B00072657365742E633A3735203A20626974DC
:1051C000506F73203C2033327500000066736C5FB3
:1051D0007370632E633A313337203A20636F6E6603
:1051E000696720213D204E554C4C000066736C5F72
:1051F0007370632E633A383238203A206F707469C6
:105200006F6E20213D204E554C4C000066736C5F44
:105210007370632E633A31333039203A206F7074E3
:10522000696F6E20213D204E554C4C0066736C5FBB
:10523000616461707465725F6C70756172742E6305
:105240003A373033203A204E554C4C20213D2068CF
:10525000616E646C6500000066736C5F6164617010
:105260007465725F6C70756172742E633A37303496
:10527000203A204E554C4C20213D20756172745FC0
:10528000636F6E666967000066736C5F616461706E
:105290007465725F6C70756172742E633A37303565
:1052A000203A20756172745F636F6E6669672D3E88
:1052B000696E7374616E6365203C202873697A653A
:1052C0006F6628735F4C70756172744164617074AD
:1052D00065724261736529202F2073697A656F6654
:1052E000284C50554152545F54797065202A292921
:1052F0000000000066736C5F616461707465725FCA
:105300006C70756172742E633A373036203A204ED5
:10531000554C4C20213D20735F4C70756172744177
:10532000646170746572426173655B756172745F0C
:10533000636F6E6669672D3E696E7374616E636537
:105340005D00000066736C5F616461707465725F1C
:105350006C70756172742E633A373839203A204E7A
:10536000554C4C20213D2068616E646C6500000046
:1053700066736C5F616461707465725F6C70756197
:1053800072742E633A373930203A204E554C4C20F7
:10539000213D20646174610066736C5F61646170BB
:1053A0007465725F6C70756172742E633A3739314F
:1053B000203A206C656E677468203E2030550000EE
:1053C00066736C5F616461707465725F6C70756147
:1053D00072742E633A383034203A204E554C4C20AB
:1053E000213D2068616E646C6500000066736C5F2F
:1053F000616461707465725F6C70756172742E6344
:105400003A383035203A204E554C4C20213D20640E
:105410006174610066736C5F616461707465725F72
:105420006C70756172742E633A383036203A206C95
:10543000656E677468203E2030550000433A5C502A
:10544000524F4A454354535C454D424544444544BC
:105450005C4F4D4E49524F5645525C6672646D6DBD
:1054600063786E3934375F70776D5F636D33335FA8
:10547000636F7265305C647269766572732F6673F0
:105480006C5F706F72742E683A333632203A206344
:105490006F6E66696700FFFF002009400030094019
:1054A000004009400050094000400B4000500B40B4
:1054B00000600B4000700B4000800B4000900B40E0
:1054C0000B010C010D010E010F0110011101120160
:1054D000130114010B0001000C0001000D0001007C
:1054E0000E0001000F00010010000100110001007A
:1054F0001200010013000100140001000020094007
:1055000000300940004009400050094000400B4075
:1055100000500B4000600B4000700B4000800B40BF
:1055200000900B4000E00C4000000D4000FA01FA32
:1055300002FA03FA00FB01FB02FB03FB0020094017
:1055400000300940004009400050094000400B4035
:1055500000500B4000600B4000700B4000800B407F
:1055600000900B4001010000010200000101000059
:10557000030200000301000003010000020200001A
:10558000020100000201FFFF03000000720077002B
:0C5590000024F40000800000006CDC022D
:0400000300000301F5
:00000001FF
